{
  "contractName": "SocialMedia",
  "abi": [
    {
      "inputs": [
        {
          "internalType": "address",
          "name": "",
          "type": "address"
        }
      ],
      "name": "addressToUsername",
      "outputs": [
        {
          "internalType": "string",
          "name": "",
          "type": "string"
        }
      ],
      "stateMutability": "view",
      "type": "function",
      "constant": true
    },
    {
      "inputs": [],
      "name": "messageCount",
      "outputs": [
        {
          "internalType": "uint256",
          "name": "",
          "type": "uint256"
        }
      ],
      "stateMutability": "view",
      "type": "function",
      "constant": true
    },
    {
      "inputs": [
        {
          "internalType": "uint256",
          "name": "",
          "type": "uint256"
        }
      ],
      "name": "messages",
      "outputs": [
        {
          "internalType": "address",
          "name": "sender",
          "type": "address"
        },
        {
          "internalType": "address",
          "name": "receiver",
          "type": "address"
        },
        {
          "internalType": "string",
          "name": "contentHash",
          "type": "string"
        },
        {
          "internalType": "uint256",
          "name": "timestamp",
          "type": "uint256"
        }
      ],
      "stateMutability": "view",
      "type": "function",
      "constant": true
    },
    {
      "inputs": [],
      "name": "postCount",
      "outputs": [
        {
          "internalType": "uint256",
          "name": "",
          "type": "uint256"
        }
      ],
      "stateMutability": "view",
      "type": "function",
      "constant": true
    },
    {
      "inputs": [
        {
          "internalType": "uint256",
          "name": "",
          "type": "uint256"
        }
      ],
      "name": "posts",
      "outputs": [
        {
          "internalType": "address",
          "name": "sender",
          "type": "address"
        },
        {
          "internalType": "string",
          "name": "contentHash",
          "type": "string"
        },
        {
          "internalType": "uint256",
          "name": "timestamp",
          "type": "uint256"
        }
      ],
      "stateMutability": "view",
      "type": "function",
      "constant": true
    },
    {
      "inputs": [
        {
          "internalType": "string",
          "name": "",
          "type": "string"
        }
      ],
      "name": "users",
      "outputs": [
        {
          "internalType": "address",
          "name": "userAddress",
          "type": "address"
        },
        {
          "internalType": "string",
          "name": "username",
          "type": "string"
        },
        {
          "internalType": "string",
          "name": "userDataHash",
          "type": "string"
        },
        {
          "internalType": "bool",
          "name": "exists",
          "type": "bool"
        }
      ],
      "stateMutability": "view",
      "type": "function",
      "constant": true
    },
    {
      "inputs": [
        {
          "internalType": "string",
          "name": "_username",
          "type": "string"
        },
        {
          "internalType": "string",
          "name": "_userDataHash",
          "type": "string"
        }
      ],
      "name": "registerUser",
      "outputs": [],
      "stateMutability": "nonpayable",
      "type": "function"
    },
    {
      "inputs": [
        {
          "internalType": "string",
          "name": "_username",
          "type": "string"
        }
      ],
      "name": "getUser",
      "outputs": [
        {
          "internalType": "address",
          "name": "",
          "type": "address"
        },
        {
          "internalType": "string",
          "name": "",
          "type": "string"
        },
        {
          "internalType": "string",
          "name": "",
          "type": "string"
        }
      ],
      "stateMutability": "view",
      "type": "function",
      "constant": true
    },
    {
      "inputs": [
        {
          "internalType": "address",
          "name": "_userAddress",
          "type": "address"
        }
      ],
      "name": "getUserByAddress",
      "outputs": [
        {
          "internalType": "string",
          "name": "",
          "type": "string"
        }
      ],
      "stateMutability": "view",
      "type": "function",
      "constant": true
    },
    {
      "inputs": [
        {
          "internalType": "string",
          "name": "_contentHash",
          "type": "string"
        }
      ],
      "name": "createPost",
      "outputs": [],
      "stateMutability": "nonpayable",
      "type": "function"
    },
    {
      "inputs": [
        {
          "internalType": "uint256",
          "name": "_postId",
          "type": "uint256"
        }
      ],
      "name": "getPost",
      "outputs": [
        {
          "internalType": "address",
          "name": "",
          "type": "address"
        },
        {
          "internalType": "string",
          "name": "",
          "type": "string"
        },
        {
          "internalType": "uint256",
          "name": "",
          "type": "uint256"
        }
      ],
      "stateMutability": "view",
      "type": "function",
      "constant": true
    },
    {
      "inputs": [
        {
          "internalType": "address",
          "name": "_receiver",
          "type": "address"
        },
        {
          "internalType": "string",
          "name": "_contentHash",
          "type": "string"
        }
      ],
      "name": "sendMessage",
      "outputs": [],
      "stateMutability": "nonpayable",
      "type": "function"
    },
    {
      "inputs": [
        {
          "internalType": "uint256",
          "name": "_messageId",
          "type": "uint256"
        }
      ],
      "name": "getMessage",
      "outputs": [
        {
          "internalType": "address",
          "name": "",
          "type": "address"
        },
        {
          "internalType": "address",
          "name": "",
          "type": "address"
        },
        {
          "internalType": "string",
          "name": "",
          "type": "string"
        },
        {
          "internalType": "uint256",
          "name": "",
          "type": "uint256"
        }
      ],
      "stateMutability": "view",
      "type": "function",
      "constant": true
    }
  ],
  "bytecode": "0x608060405234801561001057600080fd5b506118d1806100206000396000f3fe608060405234801561001057600080fd5b50600436106100cf5760003560e01c806340731c241161008c57806386f79edb1161006657806386f79edb14610258578063c7303c611461028b578063de6f24bb146102a7578063e07a0baa146102c3576100cf565b806340731c24146101c3578063689e1c03146101f557806369c212f614610228576100cf565b80630b1e7f83146100d45780630d80fefd1461010657806317906c2e146101395780631d2e4afd1461015757806331feb671146101735780633dbcc8d1146101a5575b600080fd5b6100ee60048036038101906100e9919061134c565b6102f3565b6040516100fd93929190611587565b60405180910390f35b610120600480360381019061011b919061134c565b6103c5565b60405161013094939291906114a3565b60405180910390f35b6101416104bd565b60405161014e9190611627565b60405180910390f35b610171600480360381019061016c91906112e0565b6104c3565b005b61018d6004803603810190610188919061129f565b610686565b60405161019c939291906114ef565b60405180910390f35b6101ad6108d7565b6040516101ba9190611627565b60405180910390f35b6101dd60048036038101906101d8919061134c565b6108dd565b6040516101ec93929190611587565b60405180910390f35b61020f600480360381019061020a919061129f565b610a13565b60405161021f9493929190611534565b60405180910390f35b610242600480360381019061023d9190611222565b610b96565b60405161024f91906115c5565b60405180910390f35b610272600480360381019061026d919061134c565b610cb1565b60405161028294939291906114a3565b60405180910390f35b6102a560048036038101906102a0919061129f565b610e45565b005b6102c160048036038101906102bc919061124b565b610f17565b005b6102dd60048036038101906102d89190611222565b61104d565b6040516102ea91906115c5565b60405180910390f35b60026020528060005260406000206000915090508060000160009054906101000a900473ffffffffffffffffffffffffffffffffffffffff169080600101805461033c90611754565b80601f016020809104026020016040519081016040528092919081815260200182805461036890611754565b80156103b55780601f1061038a576101008083540402835291602001916103b5565b820191906000526020600020905b81548152906001019060200180831161039857829003601f168201915b5050505050908060020154905083565b60046020528060005260406000206000915090508060000160009054906101000a900473ffffffffffffffffffffffffffffffffffffffff16908060010160009054906101000a900473ffffffffffffffffffffffffffffffffffffffff169080600201805461043490611754565b80601f016020809104026020016040519081016040528092919081815260200182805461046090611754565b80156104ad5780601f10610482576101008083540402835291602001916104ad565b820191906000526020600020905b81548152906001019060200180831161049057829003601f168201915b5050505050908060030154905084565b60035481565b6000826040516104d3919061148c565b908152602001604051809103902060030160009054906101000a900460ff1615610532576040517f08c379a0000000000000000000000000000000000000000000000000000000008152600401610529906115e7565b60405180910390fd5b60405180608001604052803373ffffffffffffffffffffffffffffffffffffffff1681526020018381526020018281526020016001151581525060008360405161057c919061148c565b908152602001604051809103902060008201518160000160006101000a81548173ffffffffffffffffffffffffffffffffffffffff021916908373ffffffffffffffffffffffffffffffffffffffff16021790555060208201518160010190805190602001906105ed9291906110ed565b50604082015181600201908051906020019061060a9291906110ed565b5060608201518160030160006101000a81548160ff02191690831515021790555090505081600160003373ffffffffffffffffffffffffffffffffffffffff1673ffffffffffffffffffffffffffffffffffffffff16815260200190815260200160002090805190602001906106819291906110ed565b505050565b600060608060008460405161069b919061148c565b908152602001604051809103902060030160009054906101000a900460ff166106f9576040517f08c379a00000000000000000000000000000000000000000000000000000000081526004016106f090611607565b60405180910390fd5b6000808560405161070a919061148c565b90815260200160405180910390206040518060800160405290816000820160009054906101000a900473ffffffffffffffffffffffffffffffffffffffff1673ffffffffffffffffffffffffffffffffffffffff1673ffffffffffffffffffffffffffffffffffffffff16815260200160018201805461078990611754565b80601f01602080910402602001604051908101604052809291908181526020018280546107b590611754565b80156108025780601f106107d757610100808354040283529160200191610802565b820191906000526020600020905b8154815290600101906020018083116107e557829003601f168201915b5050505050815260200160028201805461081b90611754565b80601f016020809104026020016040519081016040528092919081815260200182805461084790611754565b80156108945780601f1061086957610100808354040283529160200191610894565b820191906000526020600020905b81548152906001019060200180831161087757829003601f168201915b505050505081526020016003820160009054906101000a900460ff1615151515815250509050806000015181602001518260400151935093509350509193909250565b60055481565b60006060600080600260008681526020019081526020016000206040518060600160405290816000820160009054906101000a900473ffffffffffffffffffffffffffffffffffffffff1673ffffffffffffffffffffffffffffffffffffffff1673ffffffffffffffffffffffffffffffffffffffff16815260200160018201805461096890611754565b80601f016020809104026020016040519081016040528092919081815260200182805461099490611754565b80156109e15780601f106109b6576101008083540402835291602001916109e1565b820191906000526020600020905b8154815290600101906020018083116109c457829003601f168201915b505050505081526020016002820154815250509050806000015181602001518260400151935093509350509193909250565b6000818051602081018201805184825260208301602085012081835280955050505050506000915090508060000160009054906101000a900473ffffffffffffffffffffffffffffffffffffffff1690806001018054610a7290611754565b80601f0160208091040260200160405190810160405280929190818152602001828054610a9e90611754565b8015610aeb5780601f10610ac057610100808354040283529160200191610aeb565b820191906000526020600020905b815481529060010190602001808311610ace57829003601f168201915b505050505090806002018054610b0090611754565b80601f0160208091040260200160405190810160405280929190818152602001828054610b2c90611754565b8015610b795780601f10610b4e57610100808354040283529160200191610b79565b820191906000526020600020905b815481529060010190602001808311610b5c57829003601f168201915b5050505050908060030160009054906101000a900460ff16905084565b60606000600160008473ffffffffffffffffffffffffffffffffffffffff1673ffffffffffffffffffffffffffffffffffffffff1681526020019081526020016000208054610be490611754565b80601f0160208091040260200160405190810160405280929190818152602001828054610c1090611754565b8015610c5d5780601f10610c3257610100808354040283529160200191610c5d565b820191906000526020600020905b815481529060010190602001808311610c4057829003601f168201915b505050505090506000815111610ca8576040517f08c379a0000000000000000000000000000000000000000000000000000000008152600401610c9f90611607565b60405180910390fd5b80915050919050565b6000806060600080600460008781526020019081526020016000206040518060800160405290816000820160009054906101000a900473ffffffffffffffffffffffffffffffffffffffff1673ffffffffffffffffffffffffffffffffffffffff1673ffffffffffffffffffffffffffffffffffffffff1681526020016001820160009054906101000a900473ffffffffffffffffffffffffffffffffffffffff1673ffffffffffffffffffffffffffffffffffffffff1673ffffffffffffffffffffffffffffffffffffffff168152602001600282018054610d9390611754565b80601f0160208091040260200160405190810160405280929190818152602001828054610dbf90611754565b8015610e0c5780601f10610de157610100808354040283529160200191610e0c565b820191906000526020600020905b815481529060010190602001808311610def57829003601f168201915b50505050508152602001600382015481525050905080600001518160200151826040015183606001519450945094509450509193509193565b60036000815480929190610e5890611786565b919050555060405180606001604052803373ffffffffffffffffffffffffffffffffffffffff1681526020018281526020014281525060026000600354815260200190815260200160002060008201518160000160006101000a81548173ffffffffffffffffffffffffffffffffffffffff021916908373ffffffffffffffffffffffffffffffffffffffff1602179055506020820151816001019080519060200190610f069291906110ed565b506040820151816002015590505050565b60056000815480929190610f2a90611786565b919050555060405180608001604052803373ffffffffffffffffffffffffffffffffffffffff1681526020018373ffffffffffffffffffffffffffffffffffffffff1681526020018281526020014281525060046000600554815260200190815260200160002060008201518160000160006101000a81548173ffffffffffffffffffffffffffffffffffffffff021916908373ffffffffffffffffffffffffffffffffffffffff16021790555060208201518160010160006101000a81548173ffffffffffffffffffffffffffffffffffffffff021916908373ffffffffffffffffffffffffffffffffffffffff160217905550604082015181600201908051906020019061103b9291906110ed565b50606082015181600301559050505050565b6001602052806000526040600020600091509050805461106c90611754565b80601f016020809104026020016040519081016040528092919081815260200182805461109890611754565b80156110e55780601f106110ba576101008083540402835291602001916110e5565b820191906000526020600020905b8154815290600101906020018083116110c857829003601f168201915b505050505081565b8280546110f990611754565b90600052602060002090601f01602090048101928261111b5760008555611162565b82601f1061113457805160ff1916838001178555611162565b82800160010185558215611162579182015b82811115611161578251825591602001919060010190611146565b5b50905061116f9190611173565b5090565b5b8082111561118c576000816000905550600101611174565b5090565b60006111a361119e84611673565b611642565b9050828152602081018484840111156111bb57600080fd5b6111c6848285611712565b509392505050565b6000813590506111dd8161186d565b92915050565b600082601f8301126111f457600080fd5b8135611204848260208601611190565b91505092915050565b60008135905061121c81611884565b92915050565b60006020828403121561123457600080fd5b6000611242848285016111ce565b91505092915050565b6000806040838503121561125e57600080fd5b600061126c858286016111ce565b925050602083013567ffffffffffffffff81111561128957600080fd5b611295858286016111e3565b9150509250929050565b6000602082840312156112b157600080fd5b600082013567ffffffffffffffff8111156112cb57600080fd5b6112d7848285016111e3565b91505092915050565b600080604083850312156112f357600080fd5b600083013567ffffffffffffffff81111561130d57600080fd5b611319858286016111e3565b925050602083013567ffffffffffffffff81111561133657600080fd5b611342858286016111e3565b9150509250929050565b60006020828403121561135e57600080fd5b600061136c8482850161120d565b91505092915050565b61137e816116ca565b82525050565b61138d816116dc565b82525050565b600061139e826116a3565b6113a881856116ae565b93506113b8818560208601611721565b6113c18161185c565b840191505092915050565b60006113d7826116a3565b6113e181856116bf565b93506113f1818560208601611721565b80840191505092915050565b600061140a600e836116ae565b91507f557365726e616d652074616b656e0000000000000000000000000000000000006000830152602082019050919050565b600061144a600e836116ae565b91507f55736572206e6f7420666f756e640000000000000000000000000000000000006000830152602082019050919050565b61148681611708565b82525050565b600061149882846113cc565b915081905092915050565b60006080820190506114b86000830187611375565b6114c56020830186611375565b81810360408301526114d78185611393565b90506114e6606083018461147d565b95945050505050565b60006060820190506115046000830186611375565b81810360208301526115168185611393565b9050818103604083015261152a8184611393565b9050949350505050565b60006080820190506115496000830187611375565b818103602083015261155b8186611393565b9050818103604083015261156f8185611393565b905061157e6060830184611384565b95945050505050565b600060608201905061159c6000830186611375565b81810360208301526115ae8185611393565b90506115bd604083018461147d565b949350505050565b600060208201905081810360008301526115df8184611393565b905092915050565b60006020820190508181036000830152611600816113fd565b9050919050565b600060208201905081810360008301526116208161143d565b9050919050565b600060208201905061163c600083018461147d565b92915050565b6000604051905081810181811067ffffffffffffffff821117156116695761166861182d565b5b8060405250919050565b600067ffffffffffffffff82111561168e5761168d61182d565b5b601f19601f8301169050602081019050919050565b600081519050919050565b600082825260208201905092915050565b600081905092915050565b60006116d5826116e8565b9050919050565b60008115159050919050565b600073ffffffffffffffffffffffffffffffffffffffff82169050919050565b6000819050919050565b82818337600083830152505050565b60005b8381101561173f578082015181840152602081019050611724565b8381111561174e576000848401525b50505050565b6000600282049050600182168061176c57607f821691505b602082108114156117805761177f6117fe565b5b50919050565b600061179182611708565b91507fffffffffffffffffffffffffffffffffffffffffffffffffffffffffffffffff8214156117c4576117c36117cf565b5b600182019050919050565b7f4e487b7100000000000000000000000000000000000000000000000000000000600052601160045260246000fd5b7f4e487b7100000000000000000000000000000000000000000000000000000000600052602260045260246000fd5b7f4e487b7100000000000000000000000000000000000000000000000000000000600052604160045260246000fd5b6000601f19601f8301169050919050565b611876816116ca565b811461188157600080fd5b50565b61188d81611708565b811461189857600080fd5b5056fea2646970667358221220aabb8b1e4131e99a27cc798f6733a12984c208f8893dad237d010ed0dcbcc5b764736f6c63430008000033",
  "immutableReferences": {},
  "source": "pragma solidity ^0.8.0;\n\ncontract SocialMedia {\n    struct User {\n        address userAddress;\n        string username;\n        string userDataHash;\n        bool exists;\n    }\n    struct Post {\n        address sender;\n        string contentHash;\n        uint256 timestamp;\n    }\n    struct Message {\n        address sender;\n        address receiver;\n        string contentHash;\n        uint256 timestamp;\n    }\n    mapping(string => User) public users;\n    mapping(address => string) public addressToUsername;\n    mapping(uint256 => Post) public posts;\n    uint256 public postCount;\n    mapping(uint256 => Message) public messages;\n    uint256 public messageCount;\n\n    function registerUser(string memory _username, string memory _userDataHash) public {\n        require(!users[_username].exists, \"Username taken\");\n        users[_username] = User(msg.sender, _username, _userDataHash, true);\n        addressToUsername[msg.sender] = _username;\n    }\n\n    function getUser(string memory _username) public view returns (address, string memory, string memory) {\n        require(users[_username].exists, \"User not found\");\n        User memory user = users[_username];\n        return (user.userAddress, user.username, user.userDataHash);\n    }\n\n    function getUserByAddress(address _userAddress) public view returns (string memory) {\n        string memory username = addressToUsername[_userAddress];\n        require(bytes(username).length > 0, \"User not found\");\n        return username;\n    }\n\n    function createPost(string memory _contentHash) public {\n        postCount++;\n        posts[postCount] = Post(msg.sender, _contentHash, block.timestamp);\n    }\n\n    function getPost(uint256 _postId) public view returns (address, string memory, uint256) {\n        Post memory post = posts[_postId];\n        return (post.sender, post.contentHash, post.timestamp);\n    }\n\n    function sendMessage(address _receiver, string memory _contentHash) public {\n        messageCount++;\n        messages[messageCount] = Message(msg.sender, _receiver, _contentHash, block.timestamp);\n    }\n\n    function getMessage(uint256 _messageId) public view returns (address, address, string memory, uint256) {\n        Message memory message = messages[_messageId];\n        return (message.sender, message.receiver, message.contentHash, message.timestamp);\n    }\n}",
  "sourcePath": "C:\\Users\\vamsi\\DecentralizedSocialMedia\\contracts\\SocialMedia.sol",
  "compiler": {
    "name": "solc",
    "version": "0.8.0+commit.c7dfd78e.Emscripten.clang"
  },
  "schemaVersion": "3.4.16",
  "updatedAt": "2025-04-09T17:19:31.366Z",
  "networkType": "ethereum",
  "devdoc": {
    "kind": "dev",
    "methods": {},
    "version": 1
  },
  "userdoc": {
    "kind": "user",
    "methods": {},
    "version": 1
  }
}